{
  "_format": "hh-sol-artifact-1",
  "contractName": "MultiSessionVotingSystem",
  "sourceName": "contracts/MultiSessionVotingSystem.sol",
  "abi": [
    {
      "inputs": [],
      "stateMutability": "nonpayable",
      "type": "constructor"
    },
    {
      "anonymous": false,
      "inputs": [
        {
          "indexed": true,
          "internalType": "uint256",
          "name": "sessionId",
          "type": "uint256"
        },
        {
          "indexed": false,
          "internalType": "uint256",
          "name": "candidateId",
          "type": "uint256"
        },
        {
          "indexed": false,
          "internalType": "string",
          "name": "candidateName",
          "type": "string"
        }
      ],
      "name": "CandidateAdded",
      "type": "event"
    },
    {
      "anonymous": false,
      "inputs": [
        {
          "indexed": true,
          "internalType": "uint256",
          "name": "sessionId",
          "type": "uint256"
        },
        {
          "indexed": false,
          "internalType": "uint256",
          "name": "candidateId",
          "type": "uint256"
        }
      ],
      "name": "CandidateRemoved",
      "type": "event"
    },
    {
      "anonymous": false,
      "inputs": [
        {
          "indexed": true,
          "internalType": "uint256",
          "name": "sessionId",
          "type": "uint256"
        },
        {
          "indexed": false,
          "internalType": "uint256",
          "name": "candidateId",
          "type": "uint256"
        },
        {
          "indexed": false,
          "internalType": "string",
          "name": "newName",
          "type": "string"
        }
      ],
      "name": "CandidateUpdated",
      "type": "event"
    },
    {
      "anonymous": false,
      "inputs": [
        {
          "indexed": true,
          "internalType": "uint256",
          "name": "sessionId",
          "type": "uint256"
        },
        {
          "indexed": false,
          "internalType": "string",
          "name": "sessionName",
          "type": "string"
        },
        {
          "indexed": false,
          "internalType": "uint256",
          "name": "startTime",
          "type": "uint256"
        },
        {
          "indexed": false,
          "internalType": "uint256",
          "name": "endTime",
          "type": "uint256"
        }
      ],
      "name": "SessionCreated",
      "type": "event"
    },
    {
      "anonymous": false,
      "inputs": [
        {
          "indexed": true,
          "internalType": "uint256",
          "name": "sessionId",
          "type": "uint256"
        }
      ],
      "name": "SessionEnded",
      "type": "event"
    },
    {
      "anonymous": false,
      "inputs": [
        {
          "indexed": true,
          "internalType": "uint256",
          "name": "sessionId",
          "type": "uint256"
        }
      ],
      "name": "SessionStarted",
      "type": "event"
    },
    {
      "anonymous": false,
      "inputs": [
        {
          "indexed": true,
          "internalType": "uint256",
          "name": "sessionId",
          "type": "uint256"
        },
        {
          "indexed": true,
          "internalType": "address",
          "name": "voter",
          "type": "address"
        },
        {
          "indexed": false,
          "internalType": "uint256",
          "name": "candidateId",
          "type": "uint256"
        }
      ],
      "name": "VoteCast",
      "type": "event"
    },
    {
      "anonymous": false,
      "inputs": [
        {
          "indexed": true,
          "internalType": "address",
          "name": "voter",
          "type": "address"
        }
      ],
      "name": "VoterRegistered",
      "type": "event"
    },
    {
      "inputs": [
        {
          "internalType": "uint256",
          "name": "_sessionId",
          "type": "uint256"
        },
        {
          "internalType": "string",
          "name": "_candidateName",
          "type": "string"
        }
      ],
      "name": "addCandidateToSession",
      "outputs": [],
      "stateMutability": "nonpayable",
      "type": "function"
    },
    {
      "inputs": [
        {
          "internalType": "string",
          "name": "_sessionName",
          "type": "string"
        },
        {
          "internalType": "uint256",
          "name": "_startTime",
          "type": "uint256"
        },
        {
          "internalType": "uint256",
          "name": "_endTime",
          "type": "uint256"
        },
        {
          "internalType": "string[]",
          "name": "_candidateNames",
          "type": "string[]"
        }
      ],
      "name": "createSession",
      "outputs": [
        {
          "internalType": "uint256",
          "name": "",
          "type": "uint256"
        }
      ],
      "stateMutability": "nonpayable",
      "type": "function"
    },
    {
      "inputs": [
        {
          "internalType": "uint256",
          "name": "_sessionId",
          "type": "uint256"
        }
      ],
      "name": "endSession",
      "outputs": [],
      "stateMutability": "nonpayable",
      "type": "function"
    },
    {
      "inputs": [],
      "name": "getAllActiveSessions",
      "outputs": [
        {
          "internalType": "uint256[]",
          "name": "",
          "type": "uint256[]"
        }
      ],
      "stateMutability": "view",
      "type": "function"
    },
    {
      "inputs": [],
      "name": "getAllSessions",
      "outputs": [
        {
          "internalType": "uint256[]",
          "name": "",
          "type": "uint256[]"
        }
      ],
      "stateMutability": "view",
      "type": "function"
    },
    {
      "inputs": [
        {
          "internalType": "uint256",
          "name": "_sessionId",
          "type": "uint256"
        }
      ],
      "name": "getSession",
      "outputs": [
        {
          "internalType": "string",
          "name": "sessionName",
          "type": "string"
        },
        {
          "internalType": "uint256",
          "name": "startTime",
          "type": "uint256"
        },
        {
          "internalType": "uint256",
          "name": "endTime",
          "type": "uint256"
        },
        {
          "internalType": "bool",
          "name": "isActive",
          "type": "bool"
        },
        {
          "internalType": "uint256",
          "name": "candidateCount",
          "type": "uint256"
        },
        {
          "internalType": "uint256",
          "name": "totalVotes",
          "type": "uint256"
        }
      ],
      "stateMutability": "view",
      "type": "function"
    },
    {
      "inputs": [
        {
          "internalType": "uint256",
          "name": "_sessionId",
          "type": "uint256"
        }
      ],
      "name": "getSessionCandidates",
      "outputs": [
        {
          "components": [
            {
              "internalType": "uint256",
              "name": "id",
              "type": "uint256"
            },
            {
              "internalType": "string",
              "name": "name",
              "type": "string"
            },
            {
              "internalType": "uint256",
              "name": "voteCount",
              "type": "uint256"
            },
            {
              "internalType": "bool",
              "name": "isActive",
              "type": "bool"
            }
          ],
          "internalType": "struct MultiSessionVotingSystem.Candidate[]",
          "name": "",
          "type": "tuple[]"
        }
      ],
      "stateMutability": "view",
      "type": "function"
    },
    {
      "inputs": [
        {
          "internalType": "uint256",
          "name": "_sessionId",
          "type": "uint256"
        }
      ],
      "name": "getSessionWinner",
      "outputs": [
        {
          "internalType": "string",
          "name": "winnerName",
          "type": "string"
        },
        {
          "internalType": "uint256",
          "name": "winnerVotes",
          "type": "uint256"
        },
        {
          "internalType": "bool",
          "name": "isTie",
          "type": "bool"
        }
      ],
      "stateMutability": "view",
      "type": "function"
    },
    {
      "inputs": [
        {
          "internalType": "address",
          "name": "_voter",
          "type": "address"
        },
        {
          "internalType": "uint256",
          "name": "_sessionId",
          "type": "uint256"
        }
      ],
      "name": "getVoterChoice",
      "outputs": [
        {
          "internalType": "uint256",
          "name": "",
          "type": "uint256"
        }
      ],
      "stateMutability": "view",
      "type": "function"
    },
    {
      "inputs": [
        {
          "internalType": "address",
          "name": "_voter",
          "type": "address"
        },
        {
          "internalType": "uint256",
          "name": "_sessionId",
          "type": "uint256"
        }
      ],
      "name": "hasVotedInSession",
      "outputs": [
        {
          "internalType": "bool",
          "name": "",
          "type": "bool"
        }
      ],
      "stateMutability": "view",
      "type": "function"
    },
    {
      "inputs": [
        {
          "internalType": "address",
          "name": "_voter",
          "type": "address"
        }
      ],
      "name": "isRegisteredVoter",
      "outputs": [
        {
          "internalType": "bool",
          "name": "",
          "type": "bool"
        }
      ],
      "stateMutability": "view",
      "type": "function"
    },
    {
      "inputs": [
        {
          "internalType": "uint256",
          "name": "_sessionId",
          "type": "uint256"
        }
      ],
      "name": "isSessionActive",
      "outputs": [
        {
          "internalType": "bool",
          "name": "",
          "type": "bool"
        }
      ],
      "stateMutability": "view",
      "type": "function"
    },
    {
      "inputs": [],
      "name": "owner",
      "outputs": [
        {
          "internalType": "address",
          "name": "",
          "type": "address"
        }
      ],
      "stateMutability": "view",
      "type": "function"
    },
    {
      "inputs": [
        {
          "internalType": "address[]",
          "name": "_voters",
          "type": "address[]"
        }
      ],
      "name": "registerMultipleVoters",
      "outputs": [],
      "stateMutability": "nonpayable",
      "type": "function"
    },
    {
      "inputs": [],
      "name": "registerSelf",
      "outputs": [],
      "stateMutability": "nonpayable",
      "type": "function"
    },
    {
      "inputs": [
        {
          "internalType": "address",
          "name": "_voter",
          "type": "address"
        }
      ],
      "name": "registerVoter",
      "outputs": [],
      "stateMutability": "nonpayable",
      "type": "function"
    },
    {
      "inputs": [
        {
          "internalType": "address",
          "name": "",
          "type": "address"
        }
      ],
      "name": "registeredVoters",
      "outputs": [
        {
          "internalType": "bool",
          "name": "",
          "type": "bool"
        }
      ],
      "stateMutability": "view",
      "type": "function"
    },
    {
      "inputs": [
        {
          "internalType": "uint256",
          "name": "_sessionId",
          "type": "uint256"
        },
        {
          "internalType": "uint256",
          "name": "_candidateId",
          "type": "uint256"
        }
      ],
      "name": "removeCandidateFromSession",
      "outputs": [],
      "stateMutability": "nonpayable",
      "type": "function"
    },
    {
      "inputs": [],
      "name": "sessionCount",
      "outputs": [
        {
          "internalType": "uint256",
          "name": "",
          "type": "uint256"
        }
      ],
      "stateMutability": "view",
      "type": "function"
    },
    {
      "inputs": [
        {
          "internalType": "uint256",
          "name": "_sessionId",
          "type": "uint256"
        }
      ],
      "name": "startSession",
      "outputs": [],
      "stateMutability": "nonpayable",
      "type": "function"
    },
    {
      "inputs": [
        {
          "internalType": "uint256",
          "name": "_sessionId",
          "type": "uint256"
        },
        {
          "internalType": "uint256",
          "name": "_candidateId",
          "type": "uint256"
        },
        {
          "internalType": "string",
          "name": "_newName",
          "type": "string"
        }
      ],
      "name": "updateCandidate",
      "outputs": [],
      "stateMutability": "nonpayable",
      "type": "function"
    },
    {
      "inputs": [
        {
          "internalType": "uint256",
          "name": "_sessionId",
          "type": "uint256"
        },
        {
          "internalType": "uint256",
          "name": "_candidateId",
          "type": "uint256"
        }
      ],
      "name": "vote",
      "outputs": [],
      "stateMutability": "nonpayable",
      "type": "function"
    },
    {
      "inputs": [
        {
          "internalType": "uint256",
          "name": "",
          "type": "uint256"
        }
      ],
      "name": "votingSessions",
      "outputs": [
        {
          "internalType": "uint256",
          "name": "sessionId",
          "type": "uint256"
        },
        {
          "internalType": "string",
          "name": "sessionName",
          "type": "string"
        },
        {
          "internalType": "uint256",
          "name": "startTime",
          "type": "uint256"
        },
        {
          "internalType": "uint256",
          "name": "endTime",
          "type": "uint256"
        },
        {
          "internalType": "bool",
          "name": "isActive",
          "type": "bool"
        },
        {
          "internalType": "bool",
          "name": "isCreated",
          "type": "bool"
        },
        {
          "internalType": "uint256",
          "name": "candidateCount",
          "type": "uint256"
        },
        {
          "internalType": "uint256",
          "name": "totalVotes",
          "type": "uint256"
        }
      ],
      "stateMutability": "view",
      "type": "function"
    }
  ],
  "bytecode": "0x608060405234801561001057600080fd5b50600380546001600160a01b0319163390811790915560006002819055908152600160208190526040909120805460ff19169091179055612745806100566000396000f3fe608060405234801561001057600080fd5b506004361061014d5760003560e01c806377127612116100c3578063b384abef1161007c578063b384abef14610306578063bdd41c9614610319578063c45be6b31461033b578063cbc0415d1461034e578063da36cffe14610356578063f225c1f81461038257600080fd5b8063771276121461026c5780638c988d4f1461027f5780638da5cb5b1461029257806390bbc648146102bd5780639eab229f146102d0578063a9ff6df1146102e357600080fd5b80633e87d3ba116101155780633e87d3ba146101e0578063402ff0db146101f357806354ca06b414610218578063586442ad1461022d57806365c4fb881461023557806373cd83361461025557600080fd5b80631186eb7c1461015257806326cc55831461018257806338db6dd3146101975780633bb76ef6146101aa5780633d1bf317146101bd575b600080fd5b610165610160366004611f05565b610395565b604051610179989796959493929190611f64565b60405180910390f35b610195610190366004611f05565b610466565b005b6101956101a5366004611fcd565b610591565b6101956101b836600461209f565b6106c1565b6101d06101cb3660046120ef565b6108e6565b6040519015158152602001610179565b6101d06101ee366004611f05565b61097b565b610206610201366004611f05565b6109f1565b60405161017996959493929190612119565b610220610b39565b6040516101799190612155565b610220610bd0565b610248610243366004611f05565b610cb9565b604051610179919061218d565b61025e60025481565b604051908152602001610179565b61019561027a366004611f05565b610f44565b61025e61028d3660046120ef565b611115565b6003546102a5906001600160a01b031681565b6040516001600160a01b039091168152602001610179565b6101956102cb36600461221a565b611226565b61025e6102de366004612260565b611401565b6101d06102f1366004611fcd565b60016020526000908152604090205460ff1681565b61019561031436600461221a565b611608565b61032c610327366004611f05565b6118c9565b6040516101799392919061234b565b610195610349366004612375565b611b27565b610195611cfe565b6101d0610364366004611fcd565b6001600160a01b031660009081526001602052604090205460ff1690565b6101956103903660046123bc565b611d98565b600060208190529081526040902080546001820180549192916103b790612454565b80601f01602080910402602001604051908101604052809291908181526020018280546103e390612454565b80156104305780601f1061040557610100808354040283529160200191610430565b820191906000526020600020905b81548152906001019060200180831161041357829003601f168201915b5050505060028301546003840154600485015460058601546006909601549495929491935060ff80821693610100909204169188565b6003546001600160a01b031633146104995760405162461bcd60e51b815260040161049090612488565b60405180910390fd5b806000811180156104ac57506002548111155b6104c85760405162461bcd60e51b8152600401610490906124ca565b600081815260208190526040902060040154610100900460ff166104fe5760405162461bcd60e51b8152600401610490906124fa565b6000828152602081905260409020600481015460ff166105555760405162461bcd60e51b815260206004820152601260248201527153657373696f6e206e6f742061637469766560701b6044820152606401610490565b60048101805460ff1916905560405183907f6fec84c120bd2f6ca3672e03149381cb6bd1bf38d8442f598e8fa9820a53991e90600090a2505050565b6003546001600160a01b031633146105bb5760405162461bcd60e51b815260040161049090612488565b6001600160a01b0381166106095760405162461bcd60e51b8152602060048201526015602482015274496e76616c696420766f746572206164647265737360581b6044820152606401610490565b6001600160a01b03811660009081526001602052604090205460ff16156106725760405162461bcd60e51b815260206004820152601860248201527f566f74657220616c7265616479207265676973746572656400000000000000006044820152606401610490565b6001600160a01b0381166000818152600160208190526040808320805460ff1916909217909155517fb6be2187d059cc2a55fe29e0e503b566e1e0f8c8780096e185429350acffd3dd9190a250565b6003546001600160a01b031633146106eb5760405162461bcd60e51b815260040161049090612488565b826000811180156106fe57506002548111155b61071a5760405162461bcd60e51b8152600401610490906124ca565b600081815260208190526040902060040154610100900460ff166107505760405162461bcd60e51b8152600401610490906124fa565b8361075a8161097b565b156107775760405162461bcd60e51b815260040161049090612525565b60008351116107c85760405162461bcd60e51b815260206004820152601e60248201527f43616e646964617465206e616d652063616e6e6f7420626520656d70747900006044820152606401610490565b600085815260208190526040902084158015906107e9575080600501548511155b61082c5760405162461bcd60e51b8152602060048201526014602482015273125b9d985b1a590818d85b991a59185d1948125160621b6044820152606401610490565b600085815260078201602052604090206003015460ff166108865760405162461bcd60e51b815260206004820152601460248201527343616e646964617465206e6f742061637469766560601b6044820152606401610490565b600085815260078201602052604090206001016108a385826125ab565b50857f86b718c08dcedbcb4daabb5f4d7a8e80b21c9a411f63c373d38a16a81873832686866040516108d692919061266b565b60405180910390a2505050505050565b6000816000811180156108fb57506002548111155b6109175760405162461bcd60e51b8152600401610490906124ca565b600081815260208190526040902060040154610100900460ff1661094d5760405162461bcd60e51b8152600401610490906124fa565b50506000908152602081815260408083206001600160a01b0394909416835260089093019052205460ff1690565b600081158061098b575060025482115b1561099857506000919050565b60008281526020819052604090206004810154610100900460ff1615806109c45750600481015460ff16155b156109d25750600092915050565b806002015442101580156109ea575080600301544211155b9392505050565b6060600080600080600086600081118015610a0e57506002548111155b610a2a5760405162461bcd60e51b8152600401610490906124ca565b600081815260208190526040902060040154610100900460ff16610a605760405162461bcd60e51b8152600401610490906124fa565b6000888152602081905260409020600281015460038201546004830154600584015460068501546001860180549095949360ff169291908690610aa290612454565b80601f0160208091040260200160405190810160405280929190818152602001828054610ace90612454565b8015610b1b5780601f10610af057610100808354040283529160200191610b1b565b820191906000526020600020905b815481529060010190602001808311610afe57829003601f168201915b50505050509550975097509750975097509750505091939550919395565b6060600060025467ffffffffffffffff811115610b5857610b58611fe8565b604051908082528060200260200182016040528015610b81578160200160208202803683370190505b50905060015b6002548111610bca578082610b9d6001836126a2565b81518110610bad57610bad6126bb565b602090810291909101015280610bc2816126d1565b915050610b87565b50919050565b6060600060015b6002548111610c0e57610be98161097b565b15610bfc5781610bf8816126d1565b9250505b80610c06816126d1565b915050610bd7565b5060008167ffffffffffffffff811115610c2a57610c2a611fe8565b604051908082528060200260200182016040528015610c53578160200160208202803683370190505b509050600060015b6002548111610cb057610c6d8161097b565b15610c9e5780838381518110610c8557610c856126bb565b602090810291909101015281610c9a816126d1565b9250505b80610ca8816126d1565b915050610c5b565b50909392505050565b606081600081118015610cce57506002548111155b610cea5760405162461bcd60e51b8152600401610490906124ca565b600081815260208190526040902060040154610100900460ff16610d205760405162461bcd60e51b8152600401610490906124fa565b60008381526020819052604081209060015b82600501548111610d7957600081815260078401602052604090206003015460ff1615610d675781610d63816126d1565b9250505b80610d71816126d1565b915050610d32565b5060008167ffffffffffffffff811115610d9557610d95611fe8565b604051908082528060200260200182016040528015610df357816020015b610de060405180608001604052806000815260200160608152602001600081526020016000151581525090565b815260200190600190039081610db35790505b509050600060015b84600501548111610f3857600081815260078601602052604090206003015460ff1615610f265784600701600082815260200190815260200160002060405180608001604052908160008201548152602001600182018054610e5c90612454565b80601f0160208091040260200160405190810160405280929190818152602001828054610e8890612454565b8015610ed55780601f10610eaa57610100808354040283529160200191610ed5565b820191906000526020600020905b815481529060010190602001808311610eb857829003601f168201915b50505091835250506002820154602082015260039091015460ff1615156040909101528351849084908110610f0c57610f0c6126bb565b60200260200101819052508180610f22906126d1565b9250505b80610f30816126d1565b915050610dfb565b50909695505050505050565b6003546001600160a01b03163314610f6e5760405162461bcd60e51b815260040161049090612488565b80600081118015610f8157506002548111155b610f9d5760405162461bcd60e51b8152600401610490906124ca565b600081815260208190526040902060040154610100900460ff16610fd35760405162461bcd60e51b8152600401610490906124fa565b6000828152602081905260409020600481015460ff161561102f5760405162461bcd60e51b815260206004820152601660248201527553657373696f6e20616c72656164792061637469766560501b6044820152606401610490565b80600201544210156110835760405162461bcd60e51b815260206004820152601e60248201527f53657373696f6e2073746172742074696d65206e6f74207265616368656400006044820152606401610490565b806003015442106110d65760405162461bcd60e51b815260206004820152601760248201527f53657373696f6e20656e642074696d65207061737365640000000000000000006044820152606401610490565b60048101805460ff1916600117905560405183907fc3934e844399df6122666c45922384445cb616ed1402ecf7d2e39bd2529a274690600090a2505050565b60008160008111801561112a57506002548111155b6111465760405162461bcd60e51b8152600401610490906124ca565b600081815260208190526040902060040154610100900460ff1661117c5760405162461bcd60e51b8152600401610490906124fa565b6000838152602081815260408083206001600160a01b038816845260080190915290205460ff166111fb5760405162461bcd60e51b815260206004820152602360248201527f566f74657220686173206e6f7420766f74656420696e2074686973207365737360448201526234b7b760e91b6064820152608401610490565b50506000908152602081815260408083206001600160a01b0394909416835260099093019052205490565b6003546001600160a01b031633146112505760405162461bcd60e51b815260040161049090612488565b8160008111801561126357506002548111155b61127f5760405162461bcd60e51b8152600401610490906124ca565b600081815260208190526040902060040154610100900460ff166112b55760405162461bcd60e51b8152600401610490906124fa565b826112bf8161097b565b156112dc5760405162461bcd60e51b815260040161049090612525565b600084815260208190526040902083158015906112fd575080600501548411155b6113405760405162461bcd60e51b8152602060048201526014602482015273125b9d985b1a590818d85b991a59185d1948125160621b6044820152606401610490565b600084815260078201602052604090206003015460ff166113a35760405162461bcd60e51b815260206004820152601a60248201527f43616e64696461746520616c726561647920696e6163746976650000000000006044820152606401610490565b600084815260078201602052604090819020600301805460ff191690555185907f7e1371fe87beaf1977d485876066445a77e554f414a828481e6b014c21e6aaf6906113f29087815260200190565b60405180910390a25050505050565b6003546000906001600160a01b0316331461142e5760405162461bcd60e51b815260040161049090612488565b8284106114725760405162461bcd60e51b8152602060048201526012602482015271496e76616c69642074696d652072616e676560701b6044820152606401610490565b60008251116114c35760405162461bcd60e51b815260206004820152601f60248201527f4174206c65617374206f6e652063616e646964617465207265717569726564006044820152606401610490565b60008551116115145760405162461bcd60e51b815260206004820152601c60248201527f53657373696f6e206e616d652063616e6e6f7420626520656d707479000000006044820152606401610490565b60028054906000611524836126d1565b909155505060025460008181526020819052604090209081556001810161154b87826125ab565b50600281018590556003810184905560048101805461ffff1916610100179055600060058201819055600682018190555b83518110156115bc576115aa60025485838151811061159d5761159d6126bb565b6020026020010151611b27565b806115b4816126d1565b91505061157c565b506002547f4904011aa43162d2343adeb37498885f778d0af67c7ccfc7810d7068192b2a1b8787876040516115f3939291906126ea565b60405180910390a25050600254949350505050565b8160008111801561161b57506002548111155b6116375760405162461bcd60e51b8152600401610490906124ca565b600081815260208190526040902060040154610100900460ff1661166d5760405162461bcd60e51b8152600401610490906124fa565b3360009081526001602052604090205460ff166116c55760405162461bcd60e51b81526020600482015260166024820152754e6f74207265676973746572656420746f20766f746560501b6044820152606401610490565b6116ce8361097b565b61170f5760405162461bcd60e51b815260206004820152601260248201527153657373696f6e206e6f742061637469766560701b6044820152606401610490565b600083815260208181526040808320338452600881019092529091205460ff161561177c5760405162461bcd60e51b815260206004820152601d60248201527f416c726561647920766f74656420696e20746869732073657373696f6e0000006044820152606401610490565b600083118015611790575080600501548311155b6117d05760405162461bcd60e51b8152602060048201526011602482015270496e76616c69642063616e64696461746560781b6044820152606401610490565b600083815260078201602052604090206003015460ff1661182a5760405162461bcd60e51b815260206004820152601460248201527343616e646964617465206e6f742061637469766560601b6044820152606401610490565b3360009081526008820160209081526040808320805460ff19166001179055600984018252808320869055858352600784019091528120600201805491611870836126d1565b9091555050600681018054906000611887836126d1565b9091555050604051838152339085907f2acce567deca3aabf56327adbb4524bd5318936eaefa69e3a5208ffda0cfec099060200160405180910390a350505050565b6060600080836000811180156118e157506002548111155b6118fd5760405162461bcd60e51b8152600401610490906124ca565b600081815260208190526040902060040154610100900460ff166119335760405162461bcd60e51b8152600401610490906124fa565b60008581526020819052604081206006810154909103611980575060408051808201909152600d81526c139bc81d9bdd195cc818d85cdd609a1b6020820152935060009250829150611b1f565b6000808060015b84600501548111611a3257600081815260078601602052604090206003015460ff1615611a205760008181526007860160205260409020600201548410156119eb576000818152600786016020526040902060020154935091506001905081611a20565b600081815260078601602052604090206002015484148015611a0d5750600084115b15611a205781611a1c816126d1565b9250505b80611a2a816126d1565b915050611987565b508115611af1578360070160008381526020019081526020016000206001018360018311828054611a6290612454565b80601f0160208091040260200160405190810160405280929190818152602001828054611a8e90612454565b8015611adb5780601f10611ab057610100808354040283529160200191611adb565b820191906000526020600020905b815481529060010190602001808311611abe57829003601f168201915b5050505050925097509750975050505050611b1f565b50506040805180820190915260098152682737903bb4b73732b960b91b602082015295506000945084935050505b509193909250565b6003546001600160a01b03163314611b515760405162461bcd60e51b815260040161049090612488565b81600081118015611b6457506002548111155b611b805760405162461bcd60e51b8152600401610490906124ca565b600081815260208190526040902060040154610100900460ff16611bb65760405162461bcd60e51b8152600401610490906124fa565b82611bc08161097b565b15611bdd5760405162461bcd60e51b815260040161049090612525565b6000835111611c2e5760405162461bcd60e51b815260206004820152601e60248201527f43616e646964617465206e616d652063616e6e6f7420626520656d70747900006044820152606401610490565b60008481526020819052604081206005810180549192611c4d836126d1565b9091555050604080516080810182526005830154808252602080830188815260008486018190526001606086018190529381526007870190925293902082518155925191929190820190611ca190826125ab565b5060408281015160028301556060909201516003909101805460ff19169115159190911790556005820154905186917fed8911b3df733b7d5f75724158e54478ea12e30f49c9d31b5261879f5b76586f916113f29190889061266b565b3360009081526001602052604090205460ff1615611d535760405162461bcd60e51b8152602060048201526012602482015271105b1c9958591e481c9959da5cdd195c995960721b6044820152606401610490565b336000818152600160208190526040808320805460ff1916909217909155517fb6be2187d059cc2a55fe29e0e503b566e1e0f8c8780096e185429350acffd3dd9190a2565b6003546001600160a01b03163314611dc25760405162461bcd60e51b815260040161049090612488565b60005b8151811015611f015760016000838381518110611de457611de46126bb565b6020908102919091018101516001600160a01b031682528101919091526040016000205460ff16158015611e44575060006001600160a01b0316828281518110611e3057611e306126bb565b60200260200101516001600160a01b031614155b15611eef576001806000848481518110611e6057611e606126bb565b60200260200101516001600160a01b03166001600160a01b0316815260200190815260200160002060006101000a81548160ff021916908315150217905550818181518110611eb157611eb16126bb565b60200260200101516001600160a01b03167fb6be2187d059cc2a55fe29e0e503b566e1e0f8c8780096e185429350acffd3dd60405160405180910390a25b80611ef9816126d1565b915050611dc5565b5050565b600060208284031215611f1757600080fd5b5035919050565b6000815180845260005b81811015611f4457602081850181015186830182015201611f28565b506000602082860101526020601f19601f83011685010191505092915050565b60006101008a8352806020840152611f7e8184018b611f1e565b604084019990995250506060810195909552921515608085015290151560a084015260c083015260e09091015292915050565b80356001600160a01b0381168114611fc857600080fd5b919050565b600060208284031215611fdf57600080fd5b6109ea82611fb1565b634e487b7160e01b600052604160045260246000fd5b604051601f8201601f1916810167ffffffffffffffff8111828210171561202757612027611fe8565b604052919050565b600082601f83011261204057600080fd5b813567ffffffffffffffff81111561205a5761205a611fe8565b61206d601f8201601f1916602001611ffe565b81815284602083860101111561208257600080fd5b816020850160208301376000918101602001919091529392505050565b6000806000606084860312156120b457600080fd5b8335925060208401359150604084013567ffffffffffffffff8111156120d957600080fd5b6120e58682870161202f565b9150509250925092565b6000806040838503121561210257600080fd5b61210b83611fb1565b946020939093013593505050565b60c08152600061212c60c0830189611f1e565b60208301979097525060408101949094529115156060840152608083015260a090910152919050565b6020808252825182820181905260009190848201906040850190845b81811015610f3857835183529284019291840191600101612171565b60006020808301818452808551808352604092508286019150828160051b87010184880160005b8381101561220c57603f19898403018552815160808151855288820151818a8701526121e282870182611f1e565b838a0151878b015260609384015115159390960192909252505093860193908601906001016121b4565b509098975050505050505050565b6000806040838503121561222d57600080fd5b50508035926020909101359150565b600067ffffffffffffffff82111561225657612256611fe8565b5060051b60200190565b6000806000806080858703121561227657600080fd5b843567ffffffffffffffff8082111561228e57600080fd5b61229a8883890161202f565b955060209150818701359450604087013593506060870135818111156122bf57600080fd5b8701601f810189136122d057600080fd5b80356122e36122de8261223c565b611ffe565b81815260059190911b8201840190848101908b83111561230257600080fd5b8584015b8381101561233a5780358681111561231e5760008081fd5b61232c8e898389010161202f565b845250918601918601612306565b50989b979a50959850505050505050565b60608152600061235e6060830186611f1e565b602083019490945250901515604090910152919050565b6000806040838503121561238857600080fd5b82359150602083013567ffffffffffffffff8111156123a657600080fd5b6123b28582860161202f565b9150509250929050565b600060208083850312156123cf57600080fd5b823567ffffffffffffffff8111156123e657600080fd5b8301601f810185136123f757600080fd5b80356124056122de8261223c565b81815260059190911b8201830190838101908783111561242457600080fd5b928401925b828410156124495761243a84611fb1565b82529284019290840190612429565b979650505050505050565b600181811c9082168061246857607f821691505b602082108103610bca57634e487b7160e01b600052602260045260246000fd5b60208082526022908201527f4f6e6c79206f776e65722063616e20706572666f726d2074686973206163746960408201526137b760f11b606082015260800190565b60208082526016908201527514d95cdcda5bdb88191bd95cc81b9bdd08195e1a5cdd60521b604082015260600190565b60208082526011908201527014d95cdcda5bdb881b9bdd08199bdd5b99607a1b604082015260600190565b6020808252601c908201527f43616e6e6f74206d6f64696679206163746976652073657373696f6e00000000604082015260600190565b601f8211156125a657600081815260208120601f850160051c810160208610156125835750805b601f850160051c820191505b818110156125a25782815560010161258f565b5050505b505050565b815167ffffffffffffffff8111156125c5576125c5611fe8565b6125d9816125d38454612454565b8461255c565b602080601f83116001811461260e57600084156125f65750858301515b600019600386901b1c1916600185901b1785556125a2565b600085815260208120601f198616915b8281101561263d5788860151825594840194600190910190840161261e565b508582101561265b5787850151600019600388901b60f8161c191681555b5050505050600190811b01905550565b8281526040602082015260006126846040830184611f1e565b949350505050565b634e487b7160e01b600052601160045260246000fd5b818103818111156126b5576126b561268c565b92915050565b634e487b7160e01b600052603260045260246000fd5b6000600182016126e3576126e361268c565b5060010190565b6060815260006126fd6060830186611f1e565b6020830194909452506040015291905056fea26469706673582212208b4780fc4accd067dcae84e0851e7d34d3dbc7c063dfb73b9cf7ad104f67da2864736f6c63430008130033",
  "linkReferences": {},
  "deployedLinkReferences": {}
}